{
  "_format": "hh-sol-artifact-1",
  "contractName": "Consulta",
  "sourceName": "contracts/Consulta.sol",
  "abi": [
    {
      "inputs": [],
      "stateMutability": "nonpayable",
      "type": "constructor"
    },
    {
      "anonymous": false,
      "inputs": [
        {
          "indexed": false,
          "internalType": "string",
          "name": "_clave",
          "type": "string"
        },
        {
          "indexed": false,
          "internalType": "address",
          "name": "_sender",
          "type": "address"
        },
        {
          "indexed": false,
          "internalType": "uint256",
          "name": "_timestamp",
          "type": "uint256"
        }
      ],
      "name": "NuevoVoto",
      "type": "event"
    },
    {
      "inputs": [],
      "name": "getOpciones",
      "outputs": [
        {
          "components": [
            {
              "internalType": "string",
              "name": "descripcion",
              "type": "string"
            },
            {
              "internalType": "uint256",
              "name": "id",
              "type": "uint256"
            },
            {
              "internalType": "uint256",
              "name": "votos",
              "type": "uint256"
            }
          ],
          "internalType": "struct Consulta.Opcion[]",
          "name": "",
          "type": "tuple[]"
        }
      ],
      "stateMutability": "view",
      "type": "function"
    },
    {
      "inputs": [
        {
          "internalType": "string",
          "name": "_clave",
          "type": "string"
        },
        {
          "internalType": "uint256",
          "name": "_opcion",
          "type": "uint256"
        }
      ],
      "name": "votar",
      "outputs": [],
      "stateMutability": "nonpayable",
      "type": "function"
    }
  ],
  "bytecode": "0x60806040523480156200001157600080fd5b50600160405180606001604052806040518060400160405280601081526020017f73692c2071756520636f6e74696e756500000000000000000000000000000000815250815260200160018152602001600081525090806001815401808255809150506001900390600052602060002090600302016000909190919091506000820151816000019080519060200190620000ad9291906200022e565b5060208201518160010155604082015181600201555050600160405180606001604052806040518060400160405280601081526020017f6e6f2c207175652072656e756e636965000000000000000000000000000000008152508152602001600281526020016000815250908060018154018082558091505060019003906000526020600020906003020160009091909190915060008201518160000190805190602001906200015f9291906200022e565b5060208201518160010155604082015181600201555050600160405180606001604052806040518060400160405280600b81526020017f616e756c617220766f746f000000000000000000000000000000000000000000815250815260200160038152602001600081525090806001815401808255809150506001900390600052602060002090600302016000909190919091506000820151816000019080519060200190620002119291906200022e565b506020820151816001015560408201518160020155505062000343565b8280546200023c90620002de565b90600052602060002090601f016020900481019282620002605760008555620002ac565b82601f106200027b57805160ff1916838001178555620002ac565b82800160010185558215620002ac579182015b82811115620002ab5782518255916020019190600101906200028e565b5b509050620002bb9190620002bf565b5090565b5b80821115620002da576000816000905550600101620002c0565b5090565b60006002820490506001821680620002f757607f821691505b602082108114156200030e576200030d62000314565b5b50919050565b7f4e487b7100000000000000000000000000000000000000000000000000000000600052602260045260246000fd5b610d7280620003536000396000f3fe608060405234801561001057600080fd5b50600436106100365760003560e01c806314ed98031461003b5780636e66587c14610057575b600080fd5b61005560048036038101906100509190610679565b610075565b005b61005f6102e9565b60405161006c9190610969565b60405180910390f35b61007e826103ee565b6100bd576040517f08c379a00000000000000000000000000000000000000000000000000000000081526004016100b4906109c9565b60405180910390fd5b6100c6816104c9565b610105576040517f08c379a00000000000000000000000000000000000000000000000000000000081526004016100fc906109e9565b60405180910390fd5b60005b6001805490508110156102e4578160018281548110610150577f4e487b7100000000000000000000000000000000000000000000000000000000600052603260045260246000fd5b90600052602060002090600302016001015414156102d157600181815481106101a2577f4e487b7100000000000000000000000000000000000000000000000000000000600052603260045260246000fd5b906000526020600020906003020160020160008154809291906101c490610bc6565b9190505550600060405180606001604052808581526020013373ffffffffffffffffffffffffffffffffffffffff1681526020014281525090806001815401808255809150506001900390600052602060002090600302016000909190919091506000820151816000019080519060200190610241929190610559565b5060208201518160010160006101000a81548173ffffffffffffffffffffffffffffffffffffffff021916908373ffffffffffffffffffffffffffffffffffffffff1602179055506040820151816002015550507fa936d7dc403c9ce3362a88b1da8a2c893126eec2b082772f07e3bd4cec2e088a8333426040516102c89392919061098b565b60405180910390a15b80806102dc90610bc6565b915050610108565b505050565b60606001805480602002602001604051908101604052809291908181526020016000905b828210156103e5578382906000526020600020906003020160405180606001604052908160008201805461034090610b63565b80601f016020809104026020016040519081016040528092919081815260200182805461036c90610b63565b80156103b95780601f1061038e576101008083540402835291602001916103b9565b820191906000526020600020905b81548152906001019060200180831161039c57829003601f168201915b50505050508152602001600182015481526020016002820154815250508152602001906001019061030d565b50505050905090565b600080600090505b6000805490508110156104be5782604051602001610414919061093b565b6040516020818303038152906040528051906020012060008281548110610464577f4e487b7100000000000000000000000000000000000000000000000000000000600052603260045260246000fd5b90600052602060002090600302016000016040516020016104859190610952565b6040516020818303038152906040528051906020012014156104ab5760009150506104c4565b80806104b690610bc6565b9150506103f6565b50600190505b919050565b600080600090505b60018054905081101561054e578260018281548110610519577f4e487b7100000000000000000000000000000000000000000000000000000000600052603260045260246000fd5b906000526020600020906003020160010154141561053b576001915050610554565b808061054690610bc6565b9150506104d1565b50600090505b919050565b82805461056590610b63565b90600052602060002090601f01602090048101928261058757600085556105ce565b82601f106105a057805160ff19168380011785556105ce565b828001600101855582156105ce579182015b828111156105cd5782518255916020019190600101906105b2565b5b5090506105db91906105df565b5090565b5b808211156105f85760008160009055506001016105e0565b5090565b600061060f61060a84610a2e565b610a09565b90508281526020810184848401111561062757600080fd5b610632848285610b21565b509392505050565b600082601f83011261064b57600080fd5b813561065b8482602086016105fc565b91505092915050565b60008135905061067381610d25565b92915050565b6000806040838503121561068c57600080fd5b600083013567ffffffffffffffff8111156106a657600080fd5b6106b28582860161063a565b92505060206106c385828601610664565b9150509250929050565b60006106d983836108cd565b905092915050565b6106ea81610ae5565b82525050565b60006106fb82610a84565b6107058185610aa7565b93508360208202850161071785610a5f565b8060005b85811015610753578484038952815161073485826106cd565b945061073f83610a9a565b925060208a0199505060018101905061071b565b50829750879550505050505092915050565b600061077082610a8f565b61077a8185610ab8565b935061078a818560208601610b30565b61079381610c9c565b840191505092915050565b60006107a982610a8f565b6107b38185610ac9565b93506107c3818560208601610b30565b6107cc81610c9c565b840191505092915050565b60006107e282610a8f565b6107ec8185610ada565b93506107fc818560208601610b30565b80840191505092915050565b6000815461081581610b63565b61081f8186610ada565b9450600182166000811461083a576001811461084b5761087e565b60ff1983168652818601935061087e565b61085485610a6f565b60005b8381101561087657815481890152600182019150602081019050610857565b838801955050505b50505092915050565b6000610894602083610ac9565b915061089f82610cad565b602082019050919050565b60006108b7603583610ac9565b91506108c282610cd6565b604082019050919050565b600060608301600083015184820360008601526108ea8282610765565b91505060208301516108ff602086018261091d565b506040830151610912604086018261091d565b508091505092915050565b61092681610b17565b82525050565b61093581610b17565b82525050565b600061094782846107d7565b915081905092915050565b600061095e8284610808565b915081905092915050565b6000602082019050818103600083015261098381846106f0565b905092915050565b600060608201905081810360008301526109a5818661079e565b90506109b460208301856106e1565b6109c1604083018461092c565b949350505050565b600060208201905081810360008301526109e281610887565b9050919050565b60006020820190508181036000830152610a02816108aa565b9050919050565b6000610a13610a24565b9050610a1f8282610b95565b919050565b6000604051905090565b600067ffffffffffffffff821115610a4957610a48610c6d565b5b610a5282610c9c565b9050602081019050919050565b6000819050602082019050919050565b60008190508160005260206000209050919050565b600081519050919050565b600081519050919050565b6000602082019050919050565b600082825260208201905092915050565b600082825260208201905092915050565b600082825260208201905092915050565b600081905092915050565b6000610af082610af7565b9050919050565b600073ffffffffffffffffffffffffffffffffffffffff82169050919050565b6000819050919050565b82818337600083830152505050565b60005b83811015610b4e578082015181840152602081019050610b33565b83811115610b5d576000848401525b50505050565b60006002820490506001821680610b7b57607f821691505b60208210811415610b8f57610b8e610c3e565b5b50919050565b610b9e82610c9c565b810181811067ffffffffffffffff82111715610bbd57610bbc610c6d565b5b80604052505050565b6000610bd182610b17565b91507fffffffffffffffffffffffffffffffffffffffffffffffffffffffffffffffff821415610c0457610c03610c0f565b5b600182019050919050565b7f4e487b7100000000000000000000000000000000000000000000000000000000600052601160045260246000fd5b7f4e487b7100000000000000000000000000000000000000000000000000000000600052602260045260246000fd5b7f4e487b7100000000000000000000000000000000000000000000000000000000600052604160045260246000fd5b6000601f19601f8301169050919050565b7f4c6120636c61766520646520656c6563746f7220796120686120766f7461646f600082015250565b7f4c61206f7063696f6e20656c6567696461206e6f20636f72726573706f6e646560008201527f2061206e696e67756e6120646973706f6e69626c650000000000000000000000602082015250565b610d2e81610b17565b8114610d3957600080fd5b5056fea264697066735822122029d7beeccc4f09ca4a45feca418f704578de5226177f430d7a2f8f456617954764736f6c63430008040033",
  "linkReferences": {},
  "deployedLinkReferences": {}
}